:100000000C9466000C9470000C9470000C947000BA
:100010000C9470000C9470000C9470000C947000A0
:100020000C9470000C9470000C9470000C94700090
:100030000C9470000C9470000C9470000C94700080
:100040000C9470000C9470000C9470000C94700070
:100050000C9470000C9470000C9470000C94700060
:100060000C9470000C9470000C9470000C94700050
:100070000C9470000C9470000C9470000C94700040
:100080000C9470000C9470000C9470000C94700030
:100090000C9470000C9470000C9470000C94700020
:1000A0000C9470000C9470000C9470000C94700010
:1000B0000C9470000C9470000C9470000C94700000
:1000C0000C9470000C9470000C94700011241FBEEE
:1000D000CFEFD8E0DEBFCDBF0E9472000C947B0052
:1000E0000C9400003F9A3E98469A369902C0479871
:0A00F000FCCF479AFACFF894FFCF37
:00000001FF
