:100000000C9466000C9470000C9470000C947000BA
:100010000C9470000C9470000C9470000C947000A0
:100020000C9470000C9470000C9470000C94700090
:100030000C9470000C9470000C9470000C94700080
:100040000C9470000C9470000C9470000C94700070
:100050000C9470000C9470000C9470000C94700060
:100060000C9470000C9470000C9470000C94700050
:100070000C94C5000C9470000C94D7000C94700084
:100080000C9470000C9470000C9470000C94700030
:100090000C9470000C9470000C9470000C94700020
:1000A0000C9470000C9470000C9470000C94700010
:1000B0000C9470000C9470000C9470000C94700000
:1000C0000C9470000C9470000C94700011241FBEEE
:1000D000CFEFD8E0DEBFCDBF0E94AF000C940B0184
:1000E0000C940000A0E0B0E0880F991FAA1FBB1F6E
:1000F000880F991FAA1FBB1F9C01AD01220F331F40
:10010000441F551F220F331F441F551F60E074E228
:1001100084EF90E00E94E900215031093093CD0036
:100120002093CC00EAECF0E0808186608083E9ECEB
:10013000F0E080818861808380E090E00895E8ECC1
:10014000F0E0908195FFFDCF8093CE000895E8EC1C
:10015000F0E080818823ECF78091CE0008958AB189
:1001600080638AB93F9AE9ECF0E08081806C8083FB
:10017000789480E09BE40E9472000E94A7000E9495
:100180009F0088B1805888B9F8CF1F920F920FB6A0
:100190000F9211248F939F939BB180E289278BB993
:1001A0009F918F910F900FBE0F901F9018951F92E7
:1001B0000F920FB60F9211248F939F939BB180E102
:1001C00089278BB99F918F910F900FBE0F901F9031
:1001D0001895A1E21A2EAA1BBB1BFD010DC0AA1F78
:1001E000BB1FEE1FFF1FA217B307E407F50720F0A0
:1001F000A21BB30BE40BF50B661F771F881F991F1B
:100200001A9469F760957095809590959B01AC0163
:0A021000BD01CF010895F894FFCF5F
:00000001FF
