:100000000C9466000C9478000C9478000C947800A2
:100010000C9478000C9478000C9478000C94780080
:100020000C9478000C9478000C9478000C94780070
:100030000C9478000C9478000C9478000C94780060
:100040000C9478000C9478000C9478000C94780050
:100050000C9478000C9478000C9478000C94780040
:100060000C9478000C9478000C9478000C94780030
:100070000C9478000C9478000C9478000C94780020
:100080000C9478000C9478000C9478000C94780010
:100090000C9478000C9478000C9478000C94780000
:1000A0000C9478000C9478000C9478000C947800F0
:1000B0000C9478000C9478000C9478000C947800E0
:1000C0000C9478000C9478000C94780011241FBED6
:1000D000CFEFD8E0DEBFCDBF21E0A0E0B1E001C0AE
:1000E0001D92A230B207E1F70E947A000C94D3006F
:1000F0000C9400008AB180638AB90B9A419A82B14C
:10010000836082B9E0E8F0E080818960808380814B
:10011000806F8083E1E8F0E08081826080831092CC
:100120008900109288008FEF90E090938B0080936D
:100130008A00A8E8B0E0EAE8F0E021E0319916C0D2
:1001400080910001811114C08D919C911197880FAD
:10015000991F019611969C938E938081918196951B
:100160008795918380832093000102C01092000143
:10017000009916C0809101018111E0CF8D919C9171
:1001800011979695879511969C938E938081918176
:10019000880F991F01969183808320930101CECF10
:0A01A00010920101CBCFF894FFCFBD
:00000001FF
