S01400004B76656C643254696D6572732E7372656374
S11300000C9466000C9470000C9470000C947000B6
S11300100C9470000C9470000C9470000C9470009C
S11300200C9470000C9470000C9470000C9470008C
S11300300C9470000C9495000C94A7000C94700020
S11300400C9470000C9470000C9470000C9470006C
S11300500C9470000C9470000C9470000C9470005C
S11300600C9470000C9470000C9470000C9470004C
S11300700C9470000C9470000C9470000C9470003C
S11300800C9470000C9470000C9470000C9470002C
S11300900C9470000C9470000C9470000C9470001C
S11300A00C9470000C9470000C9470000C9470000C
S11300B00C9470000C9470000C9470000C947000FC
S11300C00C9470000C9470000C94700011241FBEEA
S11300D0CFEFD8E0DEBFCDBF0E9472000C94B60013
S11300E00C9400003F9A0B9A8AB180638AB9E1E8C4
S11300F0F0E080818C6080838081E2E8F0E08081A0
S1130100806C8083EFE6F0E0808186608083789461
S113011084E294EF909389008093880082E19AE7C7
S113012090938B0080938A00FFCF1F920F920FB69B
S11301300F9211248F939F9392B188E0892782B9FB
S11301409F918F910F900FBE0F901F9018951F9243
S11301500F920FB60F9211248F9388B1805888B9EB
S11301608F910F900FBE0F901F901895F894FFCFAA
S9030000FC
